S0130000554152545F4472697665722E737265630A
S11300000C942A000C9447000C9447000C9447006D
S11300100C9447000C9447000C9447000C94470040
S11300200C9447000C9447000C949A000C944700DD
S11300300C9447000C9447000C9447000C94470020
S11300400C9447000C9447000C9447000C94470010
S11300500C94470011241FBECFE5D8E0DEBFCDBF0E
S113006010E0A0E6B0E0E2E9F2E002C005900D92F3
S1130070AE3BB107D9F720E0AEEBB0E001C01D9272
S1130080AE3BB207E1F70E9449000C9447010C947F
S11300900000CF93DF93CDB7DEB72B970FB6F8945C
S11300A0DEBF0FBECDBF80E895E2A0E0B0E0888758
S11300B09987AA87BB8786E08A8388E089831B8225
S11300C01E821D821C821F82CE0101960E94A40002
S11300D080E690E00E94160185E890E00E941601F7
S11300E06CEA7DE080E090E00E947700F1CF0F930E
S11300F01F938B019C01672B682B692B81F417C01C
S11301000196823FA8E09A07D9F74F5F5F4F6F4F80
S11301107F4F401751076207730731F408C040E06E
S113012050E0BA01F0E0E0E08F2F9E2FE9CF1F915D
S11301300F9108951F920F920FB60F9211240F90F2
S11301400FBE0F901F901895CF92DF92EF92FF92FF
S1130150CF93DF93EC0110BC1AB88F819885A985E1
S1130160BA85880F991FAA1FBB1F880F991FAA1F42
S1130170BB1F9C01AD01220F331F441F551F220FCB
S1130180331F441F551F0F2EC12CF4E2DF2EF4EF52
S1130190EF2EF12CF02DC701B6010E94250121504C
S11301A029B98F819885A985BA85880F991FAA1FB7
S11301B0BB1F880F991FAA1FBB1F9C01AD01220FF3
S11301C0331F441F551F220F331F441F551FC701E0
S11301D0B6010E942501DA01C9010197A109B109FB
S11301E0892F9A2FAB2FBB2780BD52989AB1888153
S11301F0892B9E81892B8AB990B58B81892B9D810E
S1130200892B9981892B9A81892B9C81892B80BD8B
S11302108FB780688FBFDF91CF91FF90EF90DF9011
S1130220CF9008955D9BFECF8CB90895CF93DF9353
S1130230EC018881882331F021960E941201899172
S11302408111FBCFDF91CF910895A1E21A2EAA1B51
S1130250BB1BFD010DC0AA1FBB1FEE1FFF1FA21772
S1130260B307E407F50720F0A21BB30BE40BF50B6F
S1130270661F771F881F991F1A9469F760957095F8
S1130280809590959B01AC01BD01CF010895F89430
S1050290FFCF9A
S11302924F4D4720504C5A7A7A7A21205265706F1A
S11302A27274204D79204E6F6F62205465616D2007
S11302B258440D0A005265706F7274204A756E6755
S11302C26C6520506C7A2120302067616E6B2C2083
S11302D2456E656D79206A672067616E6B6564207F
S11102E2393939392074696D65730D0A0000CD
S9030000FC
